:020000040800F2
:1000000000400020E1380008DD040008E104000899
:1000100000000000000000000000000000000000E0
:1000200000000000000000000000000011050008B2
:10003000000000000000000013050008150500087E
:1000400031390008313900083139000831390008E8
:1000500031390008313900083139000831390008D8
:10006000313900081D050008313900083139000810
:1000700031390008313900083139000831390008B8
:1000800031390008313900083139000831390008A8
:100090003139000831390008313900083139000898
:1000A0003139000831390008313900083139000888
:1000B0003139000831390008313900082D050008B0
:1000C00010B5064C2378002B07D1054B002B02D02E
:1000D000044800E000BF0123237010BDC8010020C8
:1000E00000000000B8410008044B10B5002B03D0FD
:1000F0000349044800E000BF10BDC04600000000F6
:10010000CC010020B8410008002243088B4274D380
:1001100003098B425FD3030A8B4244D3030B8B4208
:1001200028D3030C8B420DD3FF22090212BA030C11
:100130008B4202D31212090265D0030B8B4219D3F2
:1001400000E0090AC30B8B4201D3CB03C01A524112
:10015000830B8B4201D38B03C01A5241430B8B425A
:1001600001D34B03C01A5241030B8B4201D30B0343
:10017000C01A5241C30A8B4201D3CB02C01A52416A
:10018000830A8B4201D38B02C01A5241430A8B422D
:1001900001D34B02C01A5241030A8B4201D30B0216
:1001A000C01A5241CDD2C3098B4201D3CB01C01A30
:1001B000524183098B4201D38B01C01A524143093A
:1001C0008B4201D34B01C01A524103098B4201D328
:1001D0000B01C01A5241C3088B4201D3CB00C01A95
:1001E000524183088B4201D38B00C01A524143080D
:1001F0008B4201D34B00C01A5241411A00D2014632
:10020000524110467047FFE701B5002000F006F8A4
:1002100002BDC0460029F7D076E770477047C04658
:1002200030B589B01422002103A803F0A7FB134BBB
:1002300059698020C002014359615A690240019204
:10024000019A5A69802189020A435A615B690B400D
:100250000293029B8025AD01094C00222900200059
:1002600001F022FE039501230493002305930693D6
:1002700003A9200001F04CFD09B030BD0010024080
:100280000004004800B583B0094A516901231943AD
:100290005161526913400193019B00220021092002
:1002A00001F0EAFE092001F019FF03B000BDC046CD
:1002B00000100240F0B585B00C22002101A803F027
:1002C0005DFB264C264B236000236360A360E36044
:1002D000012525610826666123766376A576E37697
:1002E000C222FF32E26123622433E554A56220007A
:1002F00000F076FE80235B010293072703970195A8
:1003000001A9200000F0CCFF0223019301A92000E5
:1003100000F0C6FF0323019301A9200000F0C0FFF5
:100320000423019301A9200000F0BAFF05230193E3
:1003300001A9200000F0B4FF0623019301A92000C9
:1003400000F0AEFF019701A9200000F0A9FF01967F
:1003500001A9200000F0A4FF05B0F0BD640D00204D
:100360000024014010B598B0302200210CA803F001
:1003700005FB1022002107A803F000FB1C2200212E
:10038000684603F0FBFA30230B932F3B1393109333
:100390000F3311930BA801F029F807230793043BAF
:1003A0000893002409940A94012107A801F008FB8E
:1003B00080239B0200930694684601F0A1FB18B0CD
:1003C00010BD0000F0B5C64600B586B001F06CFC6B
:1003D000FFF7C8FFFFF724FFFFF754FFFFF76AFF9F
:1003E00008222949294800F0B9FE294C0022294950
:1003F000200002F0E1FC2849200002F0F9FC274926
:10040000200003F033FA200002F0FBFC322001F060
:100410006DFC8025AD01224C01222900200001F055
:1004200043FD322001F062FC00222900200001F08F
:100430003BFD322001F05AFC1A4C80229200002130
:10044000200003F09BFA10490A884B889C46888854
:10045000CD880F894E898B89C989059104930396AC
:1004600002970195009063460F49200003F08EFA31
:10047000074D802292002100280003F000FA280096
:1004800003F00FFAC5E7C046540D0020640D0020AC
:100490002404002024000020500000204000002000
:1004A0000004004898060020F041000870B580253F
:1004B000AD01094C01222900200001F0F5FC642067
:1004C00001F014FC00222900200001F0EDFC642062
:1004D00001F00CFCEBE7C046000400487047000048
:1004E00070B58025AD01094C01222900200001F0E2
:1004F000DBFC642001F0FAFB00222900200001F05F
:10050000D3FC642001F0F2FBEBE7C0460004004896
:100510007047704710B501F0D7FB10BD10B5024809
:1005200001F055FD10BDC0469C0A002010B50248E0
:1005300002F01EF910BDC046A80D002082B00A4B83
:10054000996901221143996199690A400092009AC0
:10055000DA69802149050A43DA61DB690B400193BE
:10056000019B02B07047C0460010024030B589B010
:1005700004001422002103A803F000FA274B22688C
:100580009A4201D009B030BD254B99698020800086
:10059000014399619A6902400092009A596980204A
:1005A0008002014359615A6902400192019A5A69D5
:1005B0008021C9020A435A615B690B400293029B86
:1005C000FF23039303250495902003A9C00501F0A0
:1005D0009FFB0123039304950025059503A911486A
:1005E00001F096FB1048114B036045608560802345
:1005F000C360803303618023DB0043612023836178
:1006000080235B01C36101F07FFC002803D1064B0E
:1006100023635C62B6E7FFF749FFF8E70024014077
:1006200000100240000400489C0A0020080002401C
:100630004022835A02490B439BB2835200207047E9
:1006400080BFFFFF4022835A02490B4083520020A3
:100650007047C0467F40000084B010B503910492FB
:100660000593402201238352002383520432835294
:100670000C328352FFF7DCFF002010BC08BC04B032
:1006800018470000F0B50D78AD0045192B88B14A28
:100690001340CA78012A54D0002A48D0022A03D035
:1006A000032A49D0012400E00024AB4A13439BB243
:1006B0002B800B789E00861935882DB2A74F3D40C0
:1006C0002B439BB21A4392B232800B7B002B00D09B
:1006D00094E04B78002B44D05023C25A82180B78F8
:1006E000DB009B188022D20094466344CA885208DB
:1006F00052001A800B789B00C3181A88520606D540
:100700001A883D001540964A2A4392B21A80CB7847
:10071000012B1BD00B789B00C0180388914A134013
:1007200020225A408C4B13439BB2038051E080221D
:10073000920013430024B8E7C022D20013430024E0
:10074000B3E78022D20013430024AEE70B789B006E
:10075000C0180388834A1A407F4B13439BB203801F
:1007600037E05025425B82180B78DB009B187E4AED
:1007700094466344CA88520852001A80425B821829
:100780000B78DB009B18794A944663440A69002A77
:1007900021D11A88764D1540764A2A431A800B7863
:1007A0009B00C3181A88520406D51A886B4D154051
:1007B000714A2A4392B21A800B789B00C0180288B3
:1007C0006E4B1A40C0239B015A40634B13439BB2AC
:1007D00003802000F0BD3E2A06D85508D20700D578
:1007E0000135AD021D80DAE75509D20600D1013D81
:1007F000AD02ADB25F4A15431D80D0E70B789B0078
:10080000C3181A88554D15405D4A2A4392B21A8082
:100810005025425B82180B78DB009B188022D200A7
:10082000944663440A89520852001A80425B821837
:100830000B78DB009B184C4A944663444A89520863
:1008400052001A804B78002B3AD10B789B00C318CA
:100850001A88520406D51A88404D1540464A2A4344
:1008600092B21A800B789B00C3181A88520606D5DC
:100870001A883A4D15403A4A2A4392B21A800B78A8
:100880009B00C3181A88354D1540354A2A4392B249
:100890001A800A78920082181388384D1D40C023B0
:1008A0009B016B402C4D2B439BB213800B789B001C
:1008B000C01803882B4A13402B439BB2038088E760
:1008C0000B789B00C3181A88520406D51A88234D4A
:1008D0001540294A2A4392B21A800B789B00C3180C
:1008E0001A88520606D51A881C4D15401C4A2A4300
:1008F00092B21A800B789B00C3181A88174D1540C6
:100900001D4A2A4392B21A80CB78012B16D00B785D
:100910009B00C3181A88134D2A40202555400E4AC3
:100920002A4392B21A800B789B00C3181A88134985
:100930001140094A0A4392B21A804AE70B789B0099
:10094000C3181A88074D1540034A2A4392B21A80E9
:10095000E9E7C0468F89FFFF8080FFFF8F8FFFFF91
:10096000C080FFFFBF8FFFFF0404000006040000EB
:10097000FF83FFFF0080FFFF80C0FFFF8FBFFFFFEF
:100980008081FFFF10B50B7B002B33D14B78002B00
:1009900018D00B789B00C3181A88520606D51A88FF
:1009A0004E4C14404E4A224392B21A800B789B0060
:1009B000C01803884B4A1A404B4B13439BB2038029
:1009C000002010BD0B789B00C3181A88520406D56E
:1009D0001A88424C1440454A224392B21A800B783E
:1009E0009B00C0180388424A1A403F4B13439BB2F6
:1009F0000380E5E74B78002B37D10B789B00C318B9
:100A00001A88520406D51A88344C1440374A2243B7
:100A100092B21A800B789B00C3181A88520606D52A
:100A20001A882E4C14402E4A224392B21A800B7818
:100A30009B00C3181A88294C1440294A224392B2B9
:100A40001A800C78A40004192388294A1340264AE6
:100A500013439BB223800B789B00C0180388214965
:100A60000B401A4392B20280AAE70B789B00C3188E
:100A70001A88520406D51A88184C14401B4A22437F
:100A800092B21A800B789B00C3181A88520606D5BA
:100A90001A88124C1440124A224392B21A800B78E0
:100AA0009B00C3181A880D4C1440104A224392B27E
:100AB0001A800C78A400041923880A4A13400A4AB1
:100AC00013439BB223800B789B00C018038808490E
:100AD0000B401A4392B2028072E7C0468F8FFFFF2D
:100AE000C080FFFFBF8FFFFF8080FFFF80C0FFFF40
:100AF0008FBFFFFF4B78002B0ED10B789B00C018E7
:100B000002880C4B1A4080235B015A400A4B134366
:100B10009BB20380002070470B789B00C0180388AD
:100B2000064A134010225A40034B13439BB20380E2
:100B3000F0E7C0468FBFFFFF8080FFFFBF8FFFFF42
:100B400010B50B7B002B39D14B78002B1CD00B78C8
:100B50009B00C3181A88520606D51A88184C1440F0
:100B6000184A224392B21A80CB78012B26D00B78F8
:100B70009B00C0180388144A134020225A40134B8C
:100B800013439BB2038019E00B789B00C3181A88AB
:100B9000520406D51A880A4C14400D4A224392B2D8
:100BA0001A800B789B00C01802880A4B1A40C02399
:100BB0009B015A40054B13439BB20380002010BD9C
:100BC0008F8FFFFFC080FFFFBF8FFFFF8080FFFF81
:100BD00080C0FFFF8FBFFFFF002902D14C2380227E
:100BE000C2520020704700005822835A02490B432A
:100BF0009BB28352002070470080FFFF4423C05AFD
:100C000080B270470020704710B501335B0812189E
:100C10008020C0008446624407E008784C782402B3
:100C20000443148002320231013B002BF5D110BD88
:100C300070B505000C00497801292BD0A269236901
:100C40009A4200D8D8E0D21AA261227B002A00D0B2
:100C5000E9E05032A95A69182278D2005218A04906
:100C60008C466244002B00D0CAE013889D4919408D
:100C70009D4B0B43138023789B00ED182A889B4BD8
:100C80001A40C0239B015A40994B13439BB22B80BF
:100C9000002070BDA26923699A421DD9D21AA261AF
:100CA000227B002A1CD02278900028180088400659
:100CB00064D5002939D15031695A6918D2005218C7
:100CC00087498C466244002B1CD111888548084016
:100CD00085490143118031E00023A3611300DFE760
:100CE0009EB2E288330061692800FFF78DFF502330
:100CF000EA5AAA182378DB009B187E4A944663447C
:100D00001E802EE03E2B06D85908D80700D50131A9
:100D10008902118012E05909D80600D101398902EF
:100D200089B271480143118008E05021695A69185D
:100D3000D20052186A498C466244138062899BB281
:100D400061692800FFF760FF6378002B47D12378A3
:100D50009B00EB181A8868491140684A0A4392B20E
:100D60001A8023789B00ED182B88654A13403022A7
:100D70005A405F4B13439BB22B8089E7002923D154
:100D80005031695A6918D20052185A498C46624447
:100D9000002B06D111885348084053490143118064
:100DA0001BE03E2B06D85908D80700D5013189022F
:100DB000118012E05909D80600D10139890289B29F
:100DC00049480143118008E05021695A6918D2004E
:100DD000521848498C46624413802289AFE7012BA0
:100DE000BFD123789B00EB181A8843491140454A2C
:100DF0000A4392B21A80B4E70023A361130024E7E8
:100E00003E2B06D85908DB0700D501318902118035
:100E100031E75909DB0600D10139890289B2324B29
:100E20001943118027E7002910D15022A95A6918C7
:100E30002278D20052182F498C466244002B1AD1D6
:100E40001188284808402849014311806278002A07
:100E500037D15032A95A69182278D2005218204945
:100E60008C466244002B19D113881E4919401E4B31
:100E70000B431380FFE63E2B06D85908D80700D550
:100E8000013189021180E1E75909D80600D1013901
:100E9000890289B2144801431180D7E73E2B06D856
:100EA0005908DB0700D5013189021180E3E65909B1
:100EB000DB0600D10139890289B20B4B194311803D
:100EC000D9E6012A00D0D6E64F32A95A691822780D
:100ED000D200521802498C4662441380CBE6C046C9
:100EE00006040000FF83FFFF0080FFFF8FBFFFFFAE
:100EF0008080FFFF020400008F8FFFFFC080FFFF94
:100F0000BF8FFFFF80C0FFFF30B55D081218802043
:100F1000C0008446624407E01488A4B202320C7018
:100F2000240A4C700231013D002DF5D1DB0701D5BB
:100F300013880B7030BD000030B583B0040000236F
:100F400001930368996803220A40012A0ED0996828
:100F5000204A114212D19A6801210A439A601E4B1D
:100F600018681E49FFF7D0F8019015E01A68D207FB
:100F70002DD4DA681204EAD5002008E0A36B102211
:100F80001343A363E36B0F3A1343E363012003B0FE
:100F900030BD019B013B0193019B002BF9D100F077
:100FA0009FFE050023681B68DB070ED400F098FE47
:100FB000401B0228F6D9A36B10221343A363E36BF3
:100FC0000F3A1343E3630120E1E70020DFE700204D
:100FD000DDE7C046170000806001002040420F009E
:100FE00070B5041E00D1B1E0836B002B7ED0A36BE3
:100FF000DB0600D5A4E021688B6804221A4000D0EB
:101000009EE0A36B524803400630FF300343A363C6
:10101000886803230340012B6ED0CB6818208343DC
:10102000A0680343CB6021680B699B009B08606844
:1010300003430B612168CB6846480340CB60237EA5
:101040009B03617EC9030B43A17E48030343A06A4F
:10105000012858D0802040010343E0680343206901
:10106000022852D013432422A25C52001343E27E92
:10107000012A4CD0E269C221FF318A4202D0216AA2
:101080000A4313432168CA681A43CA60E26A80218E
:1010900049058A420DD0012A0BD0022A09D0032A21
:1010A00007D0042A05D0052A03D0062A01D0072A32
:1010B0000AD1206841690722914341612068416952
:1010C000E56A2A400A4342612268D26822490A40FE
:1010D0009A422BD0A36B12229343023A1343A36389
:1010E000E36B0F3A1343E36301202EE0C363342222
:1010F0008354FFF73BFA7AE70B68DB079AD4CB6897
:101100001B0497D489E71000A6E70422AAE7002968
:1011100003D1802252021343ACE7A26B20210A4381
:10112000A263E26B1F390A43E263A3E70023E36390
:10113000A36B03229343023A1343A363002004E00A
:10114000A36B10221343A363012070BD0120FCE7B1
:10115000FDFEFFFF1902FEFFE7FF3F83F8B5040025
:101160000E00170003689B685B073ED43423C35C02
:10117000012B3CD034230122C254437E012B32D0B8
:10118000FFF7DAFE051E2CD1A36B1A4A1A40802302
:101190005B001343A3630023E3633422A354236B54
:1011A000154A9A62236B154ADA62236B144A1A6352
:1011B00023681C221A602268536810210B43536075
:1011C0002268D3680F390B43D360216840313B005C
:1011D0003200206B00F0C0FE2268936804210B43AC
:1011E00093602800F8BD0025CEE70225F9E7022527
:1011F000F7E7C046FEF0FFFF091200087B12000867
:10120000871200087047000010B5436A9A6B50219E
:10121000114203D01B6B1B6B984710BD996B80224A
:1012200092000A439A631A68D068C02109010842F3
:1012300013D1997E002910D1116809070DD5916845
:1012400049070ED451680C20814351609A6B0949BB
:101250000A400431FF310A439A631800FFF7D2FFB6
:10126000DBE79A6B20210A439A63DA6B1F390A4342
:10127000DA63F2E7FEFEFFFF704710B5406AFFF742
:10128000FBFF10BD704710B5406A836B40221343CB
:101290008363C36B3C3A1343C363FFF7F3FF10BD93
:1012A00030B583B00400002301933433C35C012BB9
:1012B00000D18AE034230122C25403689A6852079D
:1012C00075D4434A4868904256D09A6A01200D6806
:1012D000A84002439A62E36A8022520593421ED0DC
:1012E000012B1CD0022B1AD0032B18D0042B16D0A4
:1012F000052B14D0062B12D0072B10D02268506972
:10130000072303408868984209D05069072398430F
:101310005061206842698D682B40134343610B681C
:101320001A00103A022A4CD82A4A1268102B0ED002
:10133000112B09D080235B041343264A13600B68EA
:10134000102B07D0002037E08023DB03F4E7802355
:101350001B04F1E7204B18682049FEF7D5FE8300F7
:1013600018184300019302E0019B013B0193019B8C
:10137000002BF9D100201FE09A6A01200D68A840D7
:1013800082439A620B681A00103A022A1BD8114A4B
:101390001268102B09D0112B05D0114B13400D4AA8
:1013A0001360002008E00F4BF8E70F4BF6E7836B64
:1013B000202213438363012034230022E25403B02C
:1013C00030BD0020F8E70020F6E70220F7E7C0462E
:1013D00001100000082701406001002040420F007A
:1013E000FFFFFFFEFFFFBFFFFFFF7FFF70B582B073
:1013F000041E00D185E20368DB072BD5B34B5A6886
:101400000C231340042B1DD0B04B5A680C231340FF
:10141000082B0ED06368012B41D0002B56D1AB4B6B
:101420001A68AB490A401A601A68AA490A401A6049
:101430003BE0A64B5B68C02252021340802252025E
:101440009342E7D1A14B1B689B0303D56368002B34
:1014500000D159E223689B0778D59C4B5B680C222E
:101460001A4262D0994B5A680C231340082B53D070
:10147000E368002B00D18BE0944A136801210B43F1
:10148000136000F02DFC0500904B1B689B0776D481
:1014900000F026FC401B0228F6D9032032E28B4ADA
:1014A000116880235B020B4313606368002B25D017
:1014B00000F016FC0500854B1B689B03CAD400F0A6
:1014C0000FFC401B6428F6D903201BE2052B09D032
:1014D0007E4B1A687E490A401A601A687D490A40A4
:1014E0001A60E2E7794B19688022D2020A431A6037
:1014F0001968802252020A431A60D6E700F0F0FB16
:101500000500724B1B689B03A4D500F0E9FB401B50
:101510006428F6D90320F5E16C4B5B68C0225202C7
:101520001340802212029342A2D1684B1B689B0792
:1015300004D5E368012B01D00120E3E163490B6886
:10154000F82293432269D20013430B6023681B07E0
:1015500044D5E369002B2ED05C4A536A01210B432A
:10156000536200F0BDFB0500584B5B6A9B0735D406
:1015700000F0B6FB401B0228F6D90320C2E1534914
:101580000B68F82293432269D20013430B60DDE716
:101590004E4A136801218B43136000F0A1FB050044
:1015A0004A4B1B689B07D1D500F09AFB401B0228D1
:1015B000F6D90320A6E1454A536A01218B435362C1
:1015C00000F08EFB0500414B5B6A9B0706D500F0DF
:1015D00087FB401B0228F6D9032093E123685B07B1
:1015E00000D47FE0394BDB69DB001DD4374AD16979
:1015F000802040050143D161D36903400193019BE1
:101600000125354B1B68DB0510D5A368012B21D0C4
:10161000002B36D12D4B1A6A01218A431A621A6AAD
:1016200003318A431A621AE00025EAE72A4A116860
:1016300080235B000B43136000F052FB0600264B37
:101640001B68DB05E1D400F04BFB801B6428F6D956
:10165000032057E11D4A136A01210B431362A3685B
:10166000002B24D000F03CFB0600184B1B6A9B07A4
:1016700036D400F035FB801B184B9842F5D9032077
:1016800040E1052B09D0114B1A6A01218A431A62E5
:101690001A6A03318A431A62E1E70C4B1A6A042181
:1016A0000A431A621A6A03390A431A62D7E700F03A
:1016B00017FB0600054B1B6A9B0711D500F010FBBA
:1016C000801B064B9842F5D903201BE10010024015
:1016D000FFFFFEFFFFFFFBFF0070004088130000CC
:1016E000012D3AD02368DB0610D56369012B3AD06F
:1016F000053358D1884A536B04218B435363536B92
:10170000F4318B43A169C9000B43536323689B06E3
:1017100000D482E0804B5A680C2313400C2B60D01D
:101720007D4B5A680C231340082B53D0236A002B9F
:1017300060D0794A516B80235B020B43536300F006
:10174000CFFA0500744B5B6BDB0366D400F0C8FA7C
:10175000401B0228F6D90320D4E06F4AD3696F49B1
:101760000B40D361BEE76C4B5A6B04210A435A63AA
:101770005A6B03390A435A6300F0B2FA0500664B0C
:101780005B6B9B0706D400F0ABFA401B0228F6D92E
:101790000320B7E060494B6BF8229343A269D20063
:1017A00013434B63B2E75C4B5A6B04210A435A6301
:1017B0005A6B03398A435A6300F092FA0500564B7C
:1017C0005B6B9B07A2D500F08BFA401B0228F6D971
:1017D000032097E0504B5B68C022520213409342B3
:1017E000A4D14D4B5B6BDB0317D5236A012B14D0BF
:1017F000012087E0484A536B49490B40536300F08E
:101800006FFA0500444B5B6BDB0306D500F068FA0A
:10181000401B0228F6D9032074E0636A002B00D134
:1018200074E03D4A51680C220A40082A4DD0022B30
:1018300012D0394A13683B490B40136000F050FA4C
:101840000400354B1B689B013DD500F049FA001B95
:101850000228F6D9032055E02F4A136831490B407E
:10186000136000F03DFA05002B4B1B689B0106D569
:1018700000F036FA401B0228F6D9032042E0264B3E
:10188000DA6A0F218A43216B0A43DA625A682649D1
:101890000A40E16AA06A01430A435A60196880223B
:1018A00052040A431A6000F01BFA04001A4B1B682A
:1018B0009B0106D400F014FA001B0228F6D903207D
:1018C00020E000201EE000201CE0012B20D0124B65
:1018D0005A68D96AC0235B021340A06A834201D0D0
:1018E00001200FE00F230B40216B8B4201D0012020
:1018F00008E0F0239B031A40E36A9A420AD00120D1
:1019000000E0012002B070BD0120FBE70020F9E7F4
:101910000120F7E70020F5E700100240FFFFFFEF8E
:10192000FFFFFEFFFFFFFFFEFF7FC2FF30B589B064
:1019300004AA1F4B180032C832C2110002680A60A4
:101940006A46103313CB13C21B681360194B5A68D5
:101950000C231340082B04D00C2B26D0164809B0BA
:1019600030BD910C0F23194004A8445C1149C96A89
:101970000B406946C95CC0235B021A4080235B02AE
:101980009A4208D0C0235B029A4209D00A48FEF767
:10199000BBFB6043E3E70848FEF7B6FB6043DEE7C6
:1019A0000648FEF7B1FB6043D9E70448D7E7C046D5
:1019B000D04100080010024000127A00006CDC02E6
:1019C00070B504000D00002800D189E0464B1A686C
:1019D000012313408B420BD243490B6801229343EE
:1019E0002B430B600B681A40AA4201D0012078E01B
:1019F00023689A070ED55B0705D53C4A5168E0235A
:101A0000DB000B435360394A5368F0218B43A168D4
:101A10000B4353602368DB0735D56368012B09D07E
:101A2000022B24D0032B28D0304A1268920705D409
:101A3000012056E02D4A1268920353D52B494A687B
:101A40000320824313434B6000F04AF90600274B02
:101A50005B680C221A4063689B009A4213D000F026
:101A60003FF9801B224B9842F1D9032039E01F4AED
:101A700012689201E2D4012033E01C4A526BD20377
:101A8000DCD401202DE0184B1A6801231340AB422F
:101A90000BD915490B68012293432B430B600B684C
:101AA0001A40AA4201D001201BE023685B0706D53B
:101AB0000E4A53680F490B40E1680B435360FFF730
:101AC00035FF0A4B5A6812090F2313400A4AD35CA8
:101AD000D8400A4B1860002000F0BEF8002000E05B
:101AE000012070BD0120FCE70020024000100240F0
:101AF00088130000FFF8FFFFB442000860010020D7
:101B000070B582B004000368DB0335D54B4BDB694D
:101B1000DB0066D4494AD169802040050143D16188
:101B2000D36903400193019B0125454B1B68DB05ED
:101B300059D5424B1B6AC0229200134013D06168F2
:101B40000A409A420FD03D4B186A3E4A02401E6A34
:101B50008021490231431962196A3B4E31401962B2
:101B60001A62C30753D4354A136A36490B40616879
:101B70000B431362012D59D02368DB0706D52F4A8A
:101B8000136B03218B43A1680B43136323689B07EB
:101B900006D52A4A136B2D490B40E1680B431363AA
:101BA00023689B0606D5254A136B10218B432169B8
:101BB0000B43136323689B0306D5204A136B8021D4
:101BC0008B43A1690B43136323685B0533D51B4A21
:101BD000136B40218B4361690B431363002002B0F8
:101BE00070BD0025A1E7164A116880235B000B43F6
:101BF000136000F075F80600114B1B68DB0598D4E4
:101C000000F06EF8801B6428F6D90320E7E700F0A7
:101C100067F80600094B1B6A9B07A4D400F060F824
:101C2000801B0B4B9842F5D90320D8E7D3690949AB
:101C30000B40D361A0E70020D1E7C046001002406E
:101C400000700040FFFCFFFFFFFFFEFFFFFFFCFFF7
:101C500088130000FFFFFFEF10B504000F4B197849
:101C6000FA208000FEF750FA01000D4B1868FEF7CD
:101C70004BFA00F03FFA00280DD1032C01D90120C6
:101C80000AE0013000222100404200F0F5F9054B46
:101C90001C60002000E0012010BDC04600000020B4
:101CA000600100200400002010B5064A13681021CE
:101CB0000B4313600020FFF7CFFFFEF73FFC00202F
:101CC00010BDC04600200240034A1168034B1B7838
:101CD0005B1813607047C046A40D00200000002070
:101CE000014B18687047C046A40D002070B5040071
:101CF000FFF7F6FF0500631C02D0044B1B78E418C5
:101D0000FFF7EEFF401BA042FAD370BD0000002099
:101D1000F0B5C64600B582B0002338E0042600E0E6
:101D20000026AE4035003D430234A400574EA55175
:101D3000574C25684246D4432E0026404A68D203B9
:101D400002D5424615432E00514D2E606D682E007F
:101D500026404A68920302D5424615432E004C4D58
:101D60006E60AD682E0026404A68D20202D5424617
:101D700015432E00464DAE60ED682C404A68920235
:101D800002D542462A431400414AD46001330A680E
:101D90001400DC4076D001259D402A409046F5D0C5
:101DA0004C68022C01D0122C0ED1DC080834A4009F
:101DB000275807261E40B6000F22B24097430A69F3
:101DC000B24016003E43265002685F0003242600FE
:101DD000BE40F643324094464A681440BC406246D6
:101DE000144304604C68621E012A03D9112C01D0EF
:101DF000122C10D184683440A446CC68BC406246A2
:101E0000144384604468AC434A68120901251540B4
:101E10009D4025434560C46826408C68BC403443DF
:101E2000C4604A68D200B1D51A4DAE690124264378
:101E3000AE61AD692C400194019C9C08A51CAD00CD
:101E4000124EAF5903261E40B5000F26AE40B743D1
:101E50009026F605B04200D162E70F4EB0420BD09B
:101E60000E4EB0420AD00E4EB04209D00D4EB042D6
:101E700000D153E7052654E7012652E7022650E732
:101E800003264EE702B004BC9046F0BD00000140BE
:101E9000000401400010024000040048000800480F
:101EA000000C004800100048002A01D181627047F0
:101EB0008161FCE770B5C56B0124066CB4406C60B1
:101EC000046863604368102B04D00368996003685A
:101ED000DA6070BD03689A600368D960F9E70000B2
:101EE00010B504000368064A9446634418001421A0
:101EF000FEF70AF980002064024BE36310BDC04680
:101F0000F8FFFDBF0000024070B5041E20D021255F
:101F10000223435501680B680E4A1A4043688068E3
:101F20000343E06803432069034360690343A069F6
:101F30000343E069034313430B602000FFF7D0FF26
:101F40000023A363012262551F32A354002070BDF9
:101F50000120FCE70FC0FFFF70B504002020205CCB
:101F6000012832D02020012525540130205C012891
:101F700004D020230022E254022070BD203001351D
:101F800025540020A063256828680126B0432860F6
:101F90002000FFF78FFFE36A002B0BD02268136845
:101FA0000E210B4313602268136801210B43136059
:101FB0000020E2E7226813680A210B4313602268BD
:101FC000136806398B431360EDE70220D5E770B53F
:101FD000C36B1A6804682568016C04238B401A429D
:101FE00012D06B0710D523689B0603D42368042204
:101FF00093432360C26B0423016C8B405360C36A1C
:10200000002B00D0984770BD02238B401A4218D095
:10201000AB0716D523689B0606D423680A22934390
:1020200023602123093AC254C26B0223016C8B4006
:10203000536020230022C254836A002BE3D09847C8
:10204000E1E708238B401A42DDD02B07DBD523685C
:102050000E2293432360C26B01231900046CA1403C
:1020600051608363212283541F330022C254036BC7
:10207000002BC8D09847C6E770B5002811DB83084D
:10208000144DC0339B005C5903221040C000FC3249
:1020900016008640B44389010A40824022435A51C7
:1020A00070BDC0B20F230340083B9B0806339B0062
:1020B000094A944663445D6803242040C000FF221F
:1020C00014008440A543890111408140294359608F
:1020D000E6E7C04600E100E000ED00E0002805DB97
:1020E0001F2318401E3B8340014A13607047C046BF
:1020F00000E100E001380A4B98420FD8094A5060CD
:102100000948036A1B021B0AC02109060B4303622C
:102110000023936007331360002070470120FCE721
:10212000FFFFFF0010E000E000ED00E030B587B0F9
:10213000041E61D0314BC35C002B07D02F4B032210
:10214000E2542068FEF77EFA00231AE08A239B00FF
:102150000022C25400F08AFCF0E75A01A2181100D4
:1021600029310120087001390B70D38610002B3003
:10217000002101709163D1639A1C52011151013306
:10218000DBB260688342E8D3002215E05301E31814
:102190001D002A35FF3500212970013D2A700335C5
:1021A00029700D3529603D33FF33196013000A3360
:1021B0005B0119510132D2B29042E7D86A4623003E
:1021C000103323CB23C203CB03C26168A268E36848
:1021D0002068FEF741FA24230022E254074B013223
:1021E000E254E369012B02D0002007B030BD20008B
:1021F00000F027FC0020F8E70120F6E729020000A4
:1022000070B504008A239B00C35C012B0DD08A2586
:10221000AD00012343550068FEF7E6FC2068FEF799
:1022200007FA00236355002070BD0220FCE770B55B
:1022300004008A239B00C35C012B0CD08A25AD00CF
:10224000012343552333C1540068FEF7C5FC002326
:102250006355002070BD0220FCE770B5050048B250
:10226000002827DB07240C40640120002930FF30C0
:1022700028182C192A34FF34002626700724214000
:1022800001700261C3704278002A00D0C181022B24
:102290001BD08A239B00EB5C012B19D08A24A4005D
:1022A00001232B5501002868FEF7ECF900232B557C
:1022B000002070BD07240C4064012000283028183D
:1022C0002C19293401262670D8E700230371E0E792
:1022D0000220EEE770B504004BB2002B1FDB072392
:1022E0000B405B011A002932FF328218C3182A33CF
:1022F000FF33002018700723194011708A239B00B8
:10230000E35C012B16D08A25AD0001236355110033
:102310002068FEF737FB00236355002070BD0723BC
:102320000B405B011A0028328218C31829330120A0
:102330001870E0E70220F1E770B507250D406C0149
:1023400021002931FF314118041926003D36FF369E
:1023500032602A000A32520113508218002353605F
:1023600022002A32FF3213702934FF342570002DE9
:1023700004D00068FEF75CFC002070BD0068FEF72A
:1023800057FCF9E70B00072119400A3149014018B1
:102390004068704770B507250D406C012100283159
:1023A00041180419E263AA1C520113508218002339
:1023B00053602300293301221A7028342570002D20
:1023C00004D00068FEF734FC002070BD0068FEF702
:1023D0002FFCF9E7F0B5C64600B505002868442390
:1023E000C35A1BB2002B00DBAAE14423C35A9BB2A1
:1023F0000F241C4000D0BCE0DB0651D503889BB203
:102400001A0500D57FE01BB2002BE7DA0388CE4A1D
:10241000134080221343038028685023C35A942218
:102420005200AA5CD2009B181B18C84A9446634409
:102430001B889B059B0D2A002932FF32D361002B9C
:102440000FD0516900290CD01400D288FEF75CFD32
:102450006369E2699446634463610021280000F0E7
:1024600040FB2B6850229A5A9B18B84A9446634402
:102470002A002932FF321269002A67D11A88B4492A
:102480001140B44A0A431A8029680A88B24B1A409C
:10249000C0239B015A40B14B13439BB20B809DE775
:1024A0000388AF4A1A40AB4B13439BB203802968A1
:1024B0005023CB5A2822AA5CD2009B185B18A94A49
:1024C000944663441B889B059B0D6B64EA6B9446A2
:1024D0006344EB630021280000F010FB2423EB5C35
:1024E000002B00D17AE72B6C002B00D076E724225A
:1024F000AB5C802149420B43DBB2CC3128684352AC
:102500000023AB546AE75023C35A94225200AA5CBA
:10251000D2009B181B188D4A944663441B889B0568
:102520009B0D2A002932FF32D3618C218900691862
:10253000D288FEF7E9FC2A68138883490B40802182
:102540000B431380280000F0C1FA47E73E2A06D863
:102550005108D20700D501318902198094E7510949
:10256000D20600D10139890289B27A4A1143198011
:102570008AE7A300984640440688B6B233B2002BDF
:1025800030DB330600D429E72B6843441A001B884C
:10259000734919406F4B0B439BB21380286850233B
:1025A000C35A610169180A0028321278D2009B18B8
:1025B0001B186C4A944663441A889205920DA31C1A
:1025C0005B01E8184260C86B84466244CA635B5989
:1025D000002B00D0ACE00C0028342178280000F05B
:1025E0008DFAFBE60388584A134080221343038088
:1025F0006301EB183533FF331B78002B1ED128689D
:102600005033C35A6201AA182932FF321278D2001D
:102610009B181B184D4A944663441F88BF05BF0D85
:1026200033D06301EB181A002F32FF3212883D338A
:10263000FF3319683B00FEF767FC26E0286863015A
:10264000EB182933FF331B789A0082181288520442
:102650004BD55022825ADB00D3181B18414A9446AE
:1026600063441F88BF05BF0D32D16301EB182933C6
:10267000FF331A7892002B689C46624413883A49CB
:1026800019403A4B0B439BB21380390020000A30AB
:1026900040012A185368DB1953606301EB183D337E
:1026A000FF331A68944667441F604359002B06D0D5
:1026B0006201AA183932FF32126891422ED26301A8
:1026C000EB182933FF331978280000F00AFA58E78D
:1026D0006301EB181A003132FF3212883D33FF33A9
:1026E00019683B00FEF710FCBFE75022825ADB005E
:1026F000D3181B18154A944663441F88BF05BF0DA5
:10270000B3D06301EB181A003332FF3212883D3325
:10271000FF3319683B00FEF7F7FBA6E76201AA1832
:102720002932FF3211783A002800FFF705FE28E72A
:1027300064012C19283421782800FFF72BFE4DE680
:10274000002004BC9046F0BD8F0F0000060400007E
:10275000FF83FFFF0080FFFF8FBFFFFF8080FFFF31
:102760000F8FFFFF020400008F8FFFFFC080FFFF6D
:1027700070B504000068FEF741FA030400D57BE061
:102780002068FEF73BFA430500D579E02068FEF7A4
:1027900035FA430405D5216844228B5A5848034032
:1027A0008B522068FEF72AFA830405D5216844225B
:1027B0008B5A544803408B522068FEF71FFAC3041B
:1027C00018D521684023CA5A04208243CA5221687E
:1027D000CA5A04308243CA5298239B00E35C012BFF
:1027E0005CD0200000F0A9F9216844228B5A4648A9
:1027F00003408B522068FEF701FA030557D4206886
:10280000FEF7FCF9030626D5216844228B5A802066
:1028100083438B5298239B00E35C002B62D1216899
:102820004033CA5A04200243CA522168CA5A0820B7
:102830000243CA5298239B000122E2545423226887
:10284000D25A9208183B134099229200A3500121BA
:10285000200000F009F92068FEF7D0F9830545D47F
:102860002068FEF7CBF9C30505D5216844228B5AB1
:10287000264803408B5270BD2000FFF7ABFD7FE779
:10288000216844228B5A224803408B52200000F0DA
:1028900047F900212000FFF7CAFC77E798239B0047
:1028A0000022E2540021200000F0DEF899E72168C0
:1028B0004023CA5A08200243CA5220684421425A7F
:1028C000144D2A4042522168CA5A04200243CA5277
:1028D0002068FEF793F9C30400D590E7200000F0CC
:1028E0002BF98CE7200000F027F9B4E72168442297
:1028F0008B5A094803408B52200000F00AF9AFE7D9
:10290000FFBFFFFFFFDFFFFFFFEFFFFFFFFEFFFF48
:10291000FFFBFFFFFFF7FFFFFFFDFFFF70B50500A7
:1029200007240C4043689C4233D84BB2002B20DB79
:102930004B0119002931FF314118C3182A33FF33E5
:1029400000221A7001238B700C708A239B00EB5CB1
:10295000012B20D08A239B000122EA542868FEF72D
:10296000C9F8002C0ED08A239B000022EA540020D4
:1029700010E06301190028314118C31829330122DE
:102980001A70DFE78C239B00E9182868FEF73AF9F4
:10299000E9E7012070BD0220FCE770B504000F23B9
:1029A0000B40426893422FD84BB2002B21DB072308
:1029B0000B405B011A002932FF328218C3182A33F8
:1029C000FF330020187000239370073319401170F3
:1029D0008A239B00E35C012B18D08A25AD000123DC
:1029E000635511002068FEF7ABF800236355002003
:1029F0000BE007230B405B011A0028328218C31832
:102A0000293301201870DEE7012070BD0220FCE7A9
:102A100010B50C060DD50724214049012831401876
:102A2000002A0BD00122027303811B0C438100207A
:102A300010BD49012931FF314018F1E70273C3800D
:102A4000F5E702689A239B000121C150083B002151
:102A5000C1545423D15A01200143D152D15A0220EA
:102A60000143D152002070477047000010B588B074
:102A7000154C6269802189020A43626163690B40D7
:102A80000193019BC0235B01039302230493002263
:102A90000592033206920793902003A9C005FFF721
:102AA00037F9E269802109040A43E261E3690B40D6
:102AB0000293029B002203211F20FFF7DDFA1F2053
:102AC000FFF70CFB08B010BD0010024010B501006C
:102AD0009C239B00C058403B9C46614400F0AEF9EB
:102AE00010BD10B503009C22920080584A019B182B
:102AF0003D33FF331A6800F0D5F910BD10B503005F
:102B00009C22920080584A019B18DA6B00F006FA6A
:102B100010BD10B59C239B00C05800F086FA10BD74
:102B200070B505009C24A4000121005900F07AFA38
:102B3000285900F054FA70BD7047704710B51A4C10
:102B40001A4B2360082363603833E3603E3B236104
:102B5000A3609C239B00E050503BC4502000FFF733
:102B6000E5FA4023002200212000FFF751FF8023D7
:102B7000002280212000FFF74BFFC023002281218B
:102B80002000FFF745FF88235B0000220121200081
:102B9000FFF73EFF80235B00002282212000FFF729
:102BA00037FF002010BDC046A80D0020005C00408B
:102BB00010B588239B00C058FFF722FB002010BDF2
:102BC00010B514001A0088239B00C0582300FFF79B
:102BD00044FB002010BD10B588239B00C058FFF7B0
:102BE00079FB002010BD10B588239B00C058FFF76B
:102BF00095FE002010BD10B588239B00C058FFF73C
:102C0000CCFE002010BD0A0088239B00C35849B2A7
:102C1000002907DB7F21114049015B182B33FF336B
:102C2000187870477F21114049015B182A331878C2
:102C3000F7E710B588239B00C058FFF7F8FA00208B
:102C400010BD10B58824A4000059FFF7A3FB002095
:102C500010BD10B58824A4000059FFF76DFB0020BB
:102C600010BD10B588239B00C058FFF78BFB10BD2B
:102C700000487047E40100207047000012230B80D9
:102C8000004870474042000804230B80004870470A
:102C90001C42000830B500230AE05D0037344C5573
:102CA00000015C0001340C19002525700133DBB2F2
:102CB000934206D2040F092CEFD85D0030344C55F6
:102CC000EEE730BD70B50B4B18680B4B1D680B4B16
:102CD0001B68C018002800D170BD094CA11C082237
:102CE000FFF7D8FF2100123104222800FFF7D2FF9E
:102CF000F2E7C046ACF7FF1FB0F7FF1FB4F7FF1FA6
:102D00000800002010B51A230B80FFF7DBFF0148F5
:102D100010BDC0460800002010B50A00034C210079
:102D2000034800F030FC200010BDC0461C100020FD
:102D30003442000810B50A00034C2100034800F09B
:102D400022FC200010BDC0461C10002028420008B4
:102D500010B50A00034C2100034800F014FC2000C9
:102D600010BDC0461C1000202042000810B50A000B
:102D7000034C2100034800F006FC200010BDC046B3
:102D80001C10002024420008704770477047000064
:102D900010B5064C00220649200000F070FD0549E0
:102DA000200000F077FD002010BDC0462404002064
:102DB000980600209C08002010B5002816D0852316
:102DC0009B00C358002B03D085239B000024C450D4
:102DD000002902D084239B00C150FE235B00012107
:102DE000C1540270FFF7AAFE002010BD0220FCE7CC
:102DF000002904D085239B00C15000207047022089
:102E0000FCE710B5FFF7D4FE002010BD10B58523F8
:102E10009B00C358002B07D01B689847002801D19E
:102E2000002010BD0220FCE70220FAE710B5852340
:102E30009B00C3585B689847002010BD70B5040024
:102E400082239B00C518280000F01AF9FA235B00C2
:102E50000122E250124BE25A163BE2501033E15C81
:102E6000EA3BFF3B0B40012B0FD0002B07D0022B7E
:102E700010D07F2399432000FFF7B5FE03E029001F
:102E8000200000F0A1FA002070BD2900200000F011
:102E9000BFFAF8E72900200000F0D9FAF3E7C046AE
:102EA0000E02000010B504001300002929D1FA22F7
:102EB00052008258032A01D0002010BD421DFF326B
:102EC0009168D26891420FD885239B00C3581B6933
:102ED000002B05D0FE225200825C032A00D19847C5
:102EE000200000F09CFBE7E7891A0530FF30816085
:102EF0008A4200D90A0092B21900200000F087FB34
:102F0000DAE785239B00C3589B69002BD4D0FE22AF
:102F10005200825C032ACFD19847CDE770B50400F8
:102F2000130000294ED1FA2252008258022A06D0FC
:102F300080239B00E35C012B3FD0002070BDC26961
:102F4000056AAA421ED8866929003000FDF762F999
:102F5000002906D1B54204D8FC235B00E3589E4209
:102F60001DD385239B00E358DB68002B06D0FE228F
:102F70005200A25C032A01D120009847200000F0F3
:102F80005AFBD5E7521BC26192B2190000F027FB31
:102F90000023002200212000FFF75BFEC8E700228B
:102FA000200000F01CFBFC235B000022E250002309
:102FB00000212000FFF74DFEBAE780239B0000228E
:102FC000E254BAE785239B00C3585B69002BB4D059
:102FD000FE225200825C032AAFD19847ADE770B55C
:102FE0000400402300220021FFF7EAFD402588234A
:102FF0005B00E550D03B002280212000FFF7E0FD80
:103000002562FE235B000122E2541C33E358002BAF
:1030100006D085239B00E3585B6821792000984700
:10302000002070BD01740020704710B5FE235B00C6
:10303000C35C032B01D0002010BD85239B00C35827
:10304000DB69002BF7D09847F5E70300002002E08A
:103050000130C0B201331A78002AF9D1704710B597
:1030600004004B88012B0AD181239B000122C2500E
:103070001033C3589B689847200000F0D0FA10BD69
:103080000B7803704B7843708B78CA7812029B18C8
:1030900043800B794A7912029B1883808B79CA7915
:1030A00012029B18C380704710B504008021FFF7FF
:1030B0009AFD00212000FFF796FD10BD30B583B0CA
:1030C00004000D004A88130A072B00D98EE09B00EC
:1030D0004F49CB589F4684239B00C3581B68007CF4
:1030E0006A46911D98476B4606331B88002B03D018
:1030F000EA88002A00D07EE003B030BD037C002BBC
:1031000009D185239B00C3589B6A6A46901D984746
:1031100002234370E7E785239B00C358DB6A6A46B6
:10312000901D984702234370DDE7D2B2052A39D8B3
:103130009200384B9B589F4684239B00C3585B6882
:10314000007C6A46911D9847CDE784239B00C358B5
:103150009B68007C6A46911D9847C4E784239B00C6
:10316000C358DB68007C6A46911D9847BBE78423FF
:103170009B00C3581B69007C6A46911D9847B2E7C3
:1031800084239B00C3585B69007C6A46911D984765
:10319000A9E784239B00C3589B69007C6A46911D64
:1031A0009847A0E72900FFF77FFFA5E7037C002BE6
:1031B00007D185239B00C3585B6B6A46901D9847D7
:1031C00091E72900FFF770FF96E7037C002B09D1F8
:1031D00085239B00C3581B6B6A46901D98470723A5
:1031E000437080E72900FFF75FFF85E72900200093
:1031F000FFF75AFF80E7191C934200D9111C8AB2CD
:103200006B46D9800100200000F0DBF974E7C0466E
:10321000544200087442000870B504008B88002BEB
:1032200022D1CB88002B1FD18B787F251D40FE2318
:103230005B00C35C032B0FD0FF235B00C554290048
:10324000FFF7F7FC200000F0EAF9002D07D0FE237D
:103250005B000222E2540AE0FFF726FF07E0FE23AC
:103260005B000122E25402E02000FFF71DFF70BD69
:1032700070B504000D008978284B197001290AD80F
:10328000FE235B00C35C022B09D0032B1ED0290058
:10329000FFF70AFF02E02900FFF706FF70BD0029D3
:1032A00011D04160FE235B000322C254FFF7AEFD44
:1032B000022803D0200000F0B2F9EFE72900200037
:1032C000FFF7F2FEEAE700F0AAF9E7E7002911D0DC
:1032D000436899421ED0D9B2FFF7A8FD0F4B197869
:1032E00061602000FFF792FD02280ED0200000F060
:1032F00096F9D3E7FE235B000222C2544160FFF738
:1033000095FD200000F08BF9C8E729002000FFF7A9
:10331000CBFEC3E700F083F9C0E7C04614040020E9
:1033200010B5CB88012B09D1FE235B00C35C022BB7
:1033300007D0032B0DD0FFF7B7FE01E0FFF7B4FE77
:1033400010BD0023836001000831012200F039F92B
:10335000F6E7011D012200F034F9F1E710B5FE2374
:103360005B00C35C023BDBB2012B0ED80123C360C0
:1033700081239B00C358002B01D00323C3600100AD
:103380000C31022200F01DF910BDFFF78DFEFBE7A6
:1033900010B50400FE235B00C35C023BDBB2012BD3
:1033A0000ED84B88012B0AD181239B000022C250EA
:1033B0001033C3589B689847200000F030F910BDC7
:1033C000FFF772FEFBE7000010B54B78092B19D808
:1033D0009B000E4AD3589F46FFF770FE002010BD99
:1033E000FFF71AFFFAE7FFF743FFF7E7FFF798FF4A
:1033F000F4E7FFF7B3FFF1E7FFF731FEEEE7FFF782
:10340000C7FFEBE7FFF750FEE8E7C0468C42000835
:1034100070B504000D00FE235B00C35C032B13D1C9
:103420000B79012B0DD885239B00C3589B689847C7
:10343000EB88002B01D0002070BD200000F0EFF8D9
:10344000F9E7FFF731FEF6E7FFF72EFEF3E770B579
:1034500005000C008A88D1B2207860230340202B1D
:1034600008D1F533FF33EB589B68210028009847BB
:10347000002070BD6378012B2CD0002B52D0032B81
:10348000F6D1FA33FF33EB5C022B06D0032B0CD0C2
:1034900021002800FFF708FEEAE70029E8D080298C
:1034A000E6D02800FFF79FFBE2E76388002B06D1F8
:1034B000002904D0802902D02800FFF794FB85233F
:1034C0009B00EB589B68210028009847280000F0DB
:1034D000A6F8CDE7FE235B00EB5C022B06D0032BA6
:1034E0000CD021002800FFF7DFFDC1E70029BFD085
:1034F0008029BDD02800FFF776FBB9E76388002B51
:10350000B6D14B0603D1280000F089F8B0E72800B7
:10351000FFF771FB85239B00EB589B682100280077
:103520009847F0E7FE235B00EB5C022B06D0032BF1
:103530000AD021002800FFF7B7FD99E74B0697D086
:103540002800FFF750FB93E7130612D47F240C40AA
:10355000103424012C1904342800FFF754FB0028F0
:103560000ED00123236002222100280000F029F858
:103570007EE77F240C40013424012C190434EBE74E
:1035800000232360EFE770B504000D00160000284B
:1035900016D0FFF75AFD0130400080B2308028700D
:1035A00003236B70013B08E001345A1CD2B2E9548A
:1035B0000233DBB2AA180021117021780029F3D15F
:1035C00070BD10B51300FA225200022484508361AA
:1035D000C3610A000021FFF734FB002010BD10B5C5
:1035E00013000A000021FFF72CFB002010BD10B5CE
:1035F0001300FA22520003248450EC3A8350043220
:1036000083500A000021FFF724FB002010BD10B5F5
:1036100013000A000021FFF71CFB002010BD10B5AD
:10362000FA235B000422C250002300220021FFF78E
:1036300008FB002010BD10B5FA235B000522C25024
:10364000002300220021FFF704FB002010BD862389
:103650009B00C358002B05D0852292000021995071
:10366000002070470220FCE710B586239B00C45859
:103670000433C358002B0DD080229200A05CFF2899
:1036800008D09B68044AA25C2100984780239B00D5
:10369000FF22E254002010BD0102000043230380FA
:1036A000004870478800002043230380004870478B
:1036B000CC00002043230380004870471C010020F9
:1036C0000A230380004870471001002070B50400F1
:1036D0008626B6008559FFF7C4FA83239B00E8507D
:1036E000A359002B0BD087239B00E358DB68832270
:1036F0009200A918083AA8589847002070BD0220E7
:10370000FCE7000070B505000C0086239B00C6583E
:103710000978B93BFF3B0B402AD0202B0AD1E28825
:10372000002A09D187239B00C3589B686078002238
:1037300021009847002070BD49B200290CDAFD3302
:10374000FF33C3589B68607831009847E2883100A6
:103750002800FFF736FFEDE7627880239B00F254E4
:10376000E288074BF254E2883100FFF740FFE1E7BF
:1037700063780A2BDED101220249FFF722FFD9E745
:10378000010200001504002070B504008121FFF73C
:1037900022FA01212000FFF71EFA82212000FFF704
:1037A0001AFA86239B00E358002B0BD087239B003B
:1037B000E3585B6898478625AD006059FFF75CFACF
:1037C00000236351002070BD70B50400037C002B02
:1037D00034D18025AD002B0002228121FFF7F0F9C2
:1037E0002B00022201212000FFF7EAF9082303221F
:1037F00082212000FFF7E4F987208000FFF738FAE4
:10380000050086239B00E05000282DD00433E358A8
:103810001B689847002385229200AB500432AB50BE
:10382000237C002B16D081239B00EA58C53BFF3B2D
:1038300001212000FFF70DFA002070BD4023022275
:103840008121FFF7BDF94023022201212000FFF76B
:10385000B7F9CBE78033143AAA589B000121200026
:10386000FFF7F7F90020E8E70120E6E7002904D098
:1038700087239B00C150002070470220FCE786236D
:103880009B00C358822080001950842189005A501F
:103890000020704786239B00C258143BD150002063
:1038A000704710B586239B00C258002A14D0043BF1
:1038B000D358002B01D0012010BD85239B0001218E
:1038C000D150043BD35A8221890052588839FF399C
:1038D000FFF7B7F90020EFE70220EDE7704700009F
:1038E0000D4885460D480E490E4A002302E0D45883
:1038F000C4500433C4188C42F9D30B4A0B4C002338
:1039000001E013600432A242FBD3FFF7E7FF00F0AF
:1039100011F8FCF757FDFEE70040002000000020F2
:10392000C801002000430008C80100202011002029
:10393000FEE7000070B500260C4D0D4C641BA41072
:10394000A64209D1002600F037FC0A4D0A4C641B40
:10395000A410A64205D170BDB300EB5898470136BC
:10396000EEE7B300EB5898470136F2E7F84200085B
:10397000F8420008F8420008FC4200080300121850
:10398000934200D1704719700133F9E70EB400B5C6
:103990000B499CB01DAB0290069007910491094819
:1039A000094904CB0591006802A9019300F070F861
:1039B0000023029A13701CB008BC03B01847C0461D
:1039C000FFFFFF7F640100200802FFFFF0B58E6853
:1039D00085B007000C00039201939E423CD89023CF
:1039E0008A89DB001A4234D00325096923685B1AEF
:1039F0000293636902985D43EB0F5D19019B6D10A3
:103A000001331B18AB4200D91D00530532D52900E4
:103A1000380000F023FB061E09D10C233B60402335
:103A20000120A28940421343A38105B0F0BD029A50
:103A3000216900F0ACFAA389144A1A408023134389
:103A4000A381029B2661F61826606561019EED1A2E
:103A5000A560019B9E4200D9019E32000399206817
:103A600000F09EFAA36800209B1BA36023689E19A8
:103A70002660DAE72A00380000F04EFB061EE0D18F
:103A80002169380000F0A0FAC7E7C0467FFBFFFFBE
:103A9000F0B5A1B003901D008B890F0016001B0626
:103AA00011D50B69002B0ED1402100F0D7FA3860F8
:103AB0003861002805D10C23039A0138136021B026
:103AC000F0BD40237B61002308AC63612033637643
:103AD0001033A376079535002B78002B01D0252BCA
:103AE00046D1AB1B05930CD0320039000398FFF789
:103AF0006DFF431C00D1AEE06269059B94466344B0
:103B000063612B78002B00D1A5E0012200235242F3
:103B1000626004A9543252186E1C2360E360A360F3
:103B20001370A36531780522534800F025FA751CFF
:103B300000281FD12268D30604D5532304A95B189B
:103B400020211970130704D5532304A95B182B21D6
:103B5000197033782A2B16D0350000210A20E3682B
:103B60002A786E1C303A092A4ED9002918D010E064
:103B70000135B1E7404B2268C01A0123834013434B
:103B800023602E00CEE7079B191D1B680791002BB1
:103B900001DB0B9304E05B42E360022313432360E9
:103BA0002B782E2B0AD16B782A2B35D1079B023527
:103BB0001A1D1B680792002B2BDB09932F4E2978C7
:103BC0000322300000F0D8F9002806D04023801BE3
:103BD0008340226801351343236029780622284850
:103BE0006E1C217600F0C8F900283CD0254B002B34
:103BF00025D10722079B0733934308330793636953
:103C0000049A9B18636166E7434301219B183500C2
:103C1000A6E701235B42D0E700230A201A00013502
:103C2000636029786E1C3039092903D9002BC5D06F
:103C30000992C3E74243012352183500F1E707AB6D
:103C400000933A00104B2100039800E000BF04905D
:103C5000049B0133D3D1BB890D985B0600D42EE7BA
:103C6000012040422BE707AB00933A00064B2100AE
:103C7000039800F079F8EAE7C4420008CA42000855
:103C8000CE42000800000000CD390008F7B515004D
:103C900001938A680B6900900C00934200DA1300CC
:103CA00022002B6043321278002A01D001332B60AE
:103CB00023689B0602D52B6802332B6006272368F6
:103CC0001F4027D0230043331B785A1E934122689C
:103CD000920630D42200019943320098089EB047E2
:103CE000431C25D0062320682A68E168034000258C
:103CF000042B03D18D1AEB43DB171D40A368226907
:103D0000934201DD9B1AED180027BD4220D100200F
:103D100010E00137E3682A689B1ABB42D2DD22001B
:103D20000123193201990098089EB047431CF0D135
:103D300001204042FEBD3020E118433108702100CF
:103D40005A1C45310978A218433202331170C1E779
:103D5000220001231A3201990098089EB047431CA3
:103D6000E6D00137D1E70000F0B589B004920A002F
:103D700043320593039002920A7E0C000E9B6E2A3A
:103D800000D186E01FD8632A33D008D8002A00D19A
:103D90008CE0582A4DD0250042352A7030E0642A44
:103DA00001D0692AF7D1196825680A1D280629D586
:103DB00008681A60002803DA2D23029A4042137023
:103DC0006B4E0A274FE0732A74D008D86F2A1FD091
:103DD000702AE0D1202209680A43226003E0752A94
:103DE00016D0782AD7D12200782145321170614E41
:103DF00022E025001A684235111D196013682B70E6
:103E0000012365E008681A606906D3D500B2D1E7DE
:103E100019682568081D186008682E0605D5544ED7
:103E200008276F2A1BD00A2719E06D06F7D580B244
:103E3000F5E745314E4E0A7018682268011D00688A
:103E40001960150621D5D30702D520231A43226015
:103E50001027002803D1202322689A4322602300E0
:103E6000002243331A706368A360002B58DB0422DE
:103E7000216891432160002854D1029D002B5AD023
:103E80002500337842352B7055E05506DBD580B2DE
:103E9000D9E71A680D68101D4969186013682E0665
:103EA00001D5196002E06D06FBD519800023029D43
:103EB00023614FE01A68111D1960156800216268BE
:103EC000280000F059F8002801D0401B60606368AA
:103ED00023610023029A13703CE023692A000499AD
:103EE0000398059DA847431C3ED023689B0715D423
:103EF000079BE068984239DA180037E02200012376
:103F0000193204990398059EB047431C2CD0013503
:103F1000E368079A9B1AAB42F0DCE9E70025F7E774
:103F20000028ADD0029D3900FCF774F9735C013DA7
:103F30002B700028F7D1082F09D12368DB0706D59D
:103F400063682269934202DC3023013D2B70029B9F
:103F50005B1B2361059B07AA00932100049B039828
:103F6000FFF794FE431CB8D10120404209B0F0BDD8
:103F7000D5420008E6420008C9B28218904201D139
:103F80000020704703788B42FBD00130F6E7002316
:103F900010B59A4200D110BDCC5CC4540133F8E78F
:103FA00010B5884202D98B18984203D3002307E04A
:103FB0008B5C8354013AFBD210BDCC5CC4540133FA
:103FC0009A42FAD1F8E7000070B50500002910D038
:103FD0000C1F2368002B00DAE418280000F0D4F846
:103FE0001D4A1368002B05D163601460280000F09F
:103FF000CCF870BDA34209D9216860188342F3D17F
:1040000018685B6841182160EEE713005A68002ABF
:1040100001D0A242F9D919685818A0420BD12068E2
:104020000918581819608242E0D110685268411886
:1040300019605A60DAE7A04202D90C232B60D5E759
:1040400021686018824203D11068526841182160CB
:1040500062605C60CAE7C04618040020032370B5A4
:10406000CD1C9D43083506000C2D1ED20C25A942FF
:104070001DD8300000F088F8254A14682100002976
:1040800019D1244C2368002B03D1300000F06AF8CA
:1040900020602900300000F065F8431C2BD10C2370
:1040A0003000336000F071F803E0002DDFDA0C23FC
:1040B0003360002070BD0B685B1B19D40B2B03D938
:1040C0000B60CC18256003E04B688C420DD1136067
:1040D000300000F05AF8200007220B30231D9043D7
:1040E000C31AE7D05A42E250E4E763600C00EFE7FE
:1040F0000C004968C3E70323C41C9C43A042E1D0E1
:10410000211A300000F02EF8431CDBD1C7E7C0466F
:10411000180400201C040020F8B507000D0016004C
:10412000002905D11100FFF799FF04002000F8BD18
:10413000002A03D1FFF748FF3400F7E700F026F824
:104140002C00B042F2D231003800FFF787FF041E86
:10415000ECD029003200FFF71AFF29003800FFF7E2
:1041600033FFE3E7002370B5064C05000800236029
:1041700000F014F8431C03D12368002B00D02B60FF
:1041800070BDC0461C110020704770470B1F1B6894
:10419000181F002B01DA0B58C0187047044A136827
:1041A000002B00D1034B1818106018007047C04650
:1041B0002004002020110020F8B5C046F8BC08BC3F
:1041C0009E467047F8B5C046F8BC08BC9E4670478E
:1041D00002030405060708090A0B0C0D0E0F101048
:1041E0000102030405060708090A0B0C0D0E0F1047
:1041F0002564200920256420092025642009202524
:1042000064200920256420092025642009202564D4
:104210002009202564200D0A000000000403090481
:104220006D6175003A6F00004F747465722D4972AC
:104230006F6E00006368697270203A3300000000FE
:1042400012010002000000408304405700020102F6
:1042500003010000EC310008D6300008FC300008F3
:104260002A310008EC310008EC310008AC310008BC
:10427000CA310008383100084A3100085C310008B2
:104280006E3100088031000892310008F2330008D6
:10429000FE33000804340008F83300080434000832
:1042A000E0330008D833000804340008EC33000879
:1042B000E6330008000000000000000001020304D3
:1042C00006070809232D302B2000686C4C0065661A
:1042D0006745464700303132333435363738394157
:1042E000424344454600303132333435363738396D
:0842F000616263646566000071
:0442F800E9000008D1
:0442FC00C1000008F5
:1043000001000000040000001A030000000000008B
:10431000000000000000000000000000000000009D
:10432000000000007D2C0008892C0008352D0008B5
:10433000192D0008052D0008512D00086D2D0008CD
:10434000912D0008892D00088B2D00088D2D000867
:10435000C937000889370008053700080000000049
:10436000693600084F360008CD360008000000000E
:104370000000000000000000A93600089D3600087B
:10438000B5360008C136000809024300020100C02A
:104390003209040000010202010005240010010599
:1043A00024010001042402020524060001070582FD
:1043B0000308001009040100020A000000070501BB
:1043C000024000000705810240000000090243008E
:1043D000020100C0320904000001020201000524AC
:1043E0000010010524010001042402020524060036
:1043F000010705820308001009040100020A0000F9
:10440000000705010200020007058102000200000A
:104410000A060002000000400100000009074300F6
:10442000020104C032090400000102020100052457
:1044300000100105240100010424020205240600E5
:1044400001070582030800FF09040100020A0000B9
:10445000000705010240000007058102400000003E
:1044600000127A0068010020000000000000000037
:10447000000000000000000000000000000000003C
:10448000000000000000000000000000000000002C
:10449000000000000000000000000000000000001C
:1044A000000000000000000000000000000000000C
:1044B00000000000000000000000000000000000FC
:0844C0000000000000000000F4
:04000005080038E1D6
:00000001FF
